:020000041000EA
:10000000A0D8FF1FB901001005090010C108001099
:10001000E50800102D0400102D0A0010000000005B
:100020000000000000000000000000005509001062
:100030001D070010000000003509001071090010B4
:100040004D0A0010E30800109307001095070010F8
:10005000BF080010BD080010C709001051090010AA
:10006000C9090010530900104F040010510400107A
:1000700053040010550400105704001059040010D8
:100080005B0400105D0400104D040010E108001036
:1000900005040010130400101504001017040010CC
:1000A000190400101B0400101D0400101F04001090
:1000B000210400102304001007040010090400109C
:1000C0000B0400100D0400100F04001011040010A8
:1000D0002504001027040010290400102109001035
:1000E00025090010290900102D0900103109001000
:1000F00023090010270900102B0900102F090010F8
:10010000910700101B070010C1090010C30900105F
:10011000C50900101907001000F002F800F03CF8C3
:100120000AA090E8000C82448344AAF10107DA4552
:1001300001D100F031F8AFF2090EBAE80F0013F068
:10014000010F18BFFB1A43F001031847E80A00002B
:10015000080B0000103A24BF78C878C1FAD85207BB
:1001600024BF30C830C144BF04680C607047000031
:100170000023002400250026103A28BF78C1FBD8B0
:10018000520728BF30C148BF0B6070471FB500F051
:1001900005FD1FBD10B510BD00F0EEF81146FFF7CC
:1001A000F5FF00F08BFC00F020F903B4FFF7F2FF3D
:1001B00003BC00F04CFC00000D480E490860DFF85D
:1001C00038D00E488047DFF830D00D480047FEE7B2
:1001D000FEE7FEE7FEE7FEE7FEE7FEE7FEE7FEE7F7
:1001E000FEE7000007480849084A094B704700002D
:1001F0000000001008ED00E0A0D8FF1F91090010DA
:1002000019010010A0D0FF1FA0D8FF1FA0D4FF1F0E
:10021000A0D4FF1F53EA020C00F069802DE9F04BD7
:100220004FF00006002B1FBFB3FA83F503FA05F465
:1002300024FA05F65E4012BF1643B2FA82F502FABE
:1002400005F4C5F120051EBF22FA05FC44EA0C04A2
:10025000203556EA044C4FEA144418BF641C4FF092
:1002600000084FF00009904271EB030C39D30029CC
:1002700019BFB1FA81F701FA07F6B0FA80F700FA70
:1002800007F6C7F120071EBF20FA07FC46EA0C0656
:100290002037B6FBF4FCA7EB0507103F07F01F0B58
:1002A000CBF120060CFA0BFB2CFA06F644BFB34642
:1002B0000026202FA4BF5E464FF0000B5BEA060C21
:1002C00008BF4FF0010B19EB0B09ABFB027C48EBAD
:1002D0000608C01B06FB02CC0BFB03CC71EB0C0128
:1002E000C1E70B46024641464846BDE8F08B13B5D0
:1002F0004FF000004FF00001AFF30080BDE81C405C
:10030000704700000FB4044910B503AA029800F02A
:1003100009F810BC5DF814FB30C0FF1F7047704730
:1003200070470000074B70B50D467B4400F011F894
:100330000446284600F08DFB10B14FF0FF3070BD31
:10034000204670BD2F07000001694A1C0261087831
:10035000704700B58FB0CDE9013100210591054905
:100360007944CDE903101146684600F02AF80FB031
:1003700000BD0000E5FFFFFF754600F03FF8AE4608
:1003800005006946534620F00700854618B020B5A1
:10039000FFF728FFBDE820404FF000064FF00007B0
:1003A0004FF000084FF0000B21F00701AC46ACE81D
:1003B000C009ACE8C009ACE8C009ACE8C0098D468A
:1003C00070472DE9F04106460024D6E90170F56832
:1003D0008046304603E04146B847641C3046A84793
:1003E0000028F8D12046BDE8F08110B50446AFF3EF
:1003F00000802046BDE81040FFF7D7BE0048704798
:100400003CD0FF1F70477047704770477047704778
:100410007047704770477047704770477047704724
:1004200070477047704770477047000010B502A0D2
:10043000FFF768FF10BD00004275734661756C746C
:100440005F48616E646C65720A0000007047704717
:10045000704770477047704770477047704700009B
:100460002DE9F84F81460B461546002645484FF0CA
:100470008048854201D901267CE04348834201D867
:1004800001241EE04148834201D8022419E040487B
:10049000834201D8032414E03E48834201D8042457
:1004A0000FE03D48834201D805240AE03B488342DF
:1004B00001D8062405E03A48834201D8072400E029
:1004C0000126A6B93748854201D906270FE03648EC
:1004D000854201D908270AE03448854201D90C2712
:1004E00005E03348854201D3102700E00126EEBB2A
:1004F00005FB07F2210C4FF0000A20048446ACFBF8
:10050000020B01FB02B10CFB0A111A460023FFF794
:1005100081FE7F1EF90641EA04610143C8F810120A
:10052000D8F80C12C1F3412100EB40004001C1F1A9
:100530000B02B0FBF2F06422B0FBF2F0000C000101
:1005400040EA412040EAC900401CC8F80C021948A2
:100550000090D8F80002000705D40098401E0090D3
:1005600000980028F5D1D8F8000200E002E000076A
:1005700000D401263020C8F88C000F48C5603046F2
:10058000BDE8F88F00E1F50500127A000024F400C0
:1005900000366E010048E801005A6202006CDC027D
:1005A000007E5603C068780480F0FA0260343C0292
:1005B00040787D01A08601000CC0FF1F70B54FF48C
:1005C00080456E002A04B0F5005F06D0A84210D125
:1005D000D2F82C12C9B2491C16E0D2F82812CBB2BC
:1005E000D2F82812C1F302240121A1405B1C594317
:1005F0000AE0B04204D1D2F83012C9B2491C03E07B
:10060000D2F82412C9B2491CA84204D1D2F82C0253
:10061000C0F301600AE0B04204D1D2F83002C0F366
:10062000016003E0D2F82402C0F30160024A52F8EC
:100630002000B0FBF1F070BD0CC0FF1F2DE9F843A6
:100640000646002430482F4901602F4A0321193AF9
:100650001170002707604FF08045D5F8040240F084
:100660000100C5F8040242F210700090D5F80002B3
:10067000C00705D10098401E009000980028F5D1D1
:10068000D5F80002DFF88480C00703D0D5F8000257
:10069000800701D4012407E041468E4204D032464F
:1006A0000020FFF7DDFE04464CBB464502D1C5F8ED
:1006B000247203E04FF04070C5F82402C5F82C7294
:1006C0004FF08070C5F830021148C0F80080C0F8C3
:1006D000048006610F480068816B304688473020EF
:1006E000C5F88C00D5F80002000602D50120BDE84F
:1006F000F883D5F80002400601D50120F7E720462F
:10070000F5E7000051E5CC1A601B00400048E80105
:100710000CC0FF1F08C0FF1F7047704710B502A034
:10072000FFF7F0FD10BD000044656275674D6F6E08
:100730005F48616E646C65720A0000000848094AEF
:1007400009490069904202D8042008607047074AAE
:10075000904202D805200860704706200860704764
:100760000CC0FF1F40787D0128C0FF1F0048E80132
:100770004FF47A71484300F001B80000034909685A
:10078000484300E0401E0028FCD1704728C0FF1FEE
:10079000704770477047000010B52C4800684169E9
:1007A0002B488847294800684FF4806228498368AD
:1007B000284898470020284908600FE02548264926
:1007C000096850F82100401C18B124A0FFF79AFDD9
:1007D00010BD21480068401C1F4908601E48006881
:1007E000B0F5806FEAD322A0FFF78CFD00201A49F4
:1007F000086010E0184800683721B0FBF1F201FBF7
:1008000012001449144A126841F822001248006884
:10081000401C1149086010480068B0F5806FE9D3AA
:100820000A4800684FF480620949036909489847FB
:10083000154908700846007818B114A0FFF762FD4A
:10084000C6E718A0FFF75EFD00BFC1E708C0FF1FA5
:1008500000F000103CC0FF1F04C0FF1F4572617311
:100860006520666C617368206661696C0A0000002F
:10087000457261736520666C61736820737563638C
:100880006573730A0000000000C0FF1F577269748F
:100890006520746F20666C617368204552524F5218
:1008A0000A000000577269746520666C61736820E5
:1008B000737563636573730A0000000070477047C7
:1008C00010B502A0FFF71EFD10BD00004861726464
:1008D0004661756C745F48616E646C65720A0000F5
:1008E0007047704710B502A0FFF70CFD10BD000067
:1008F0004D656D4D616E6167655F48616E646C65E5
:10090000720A000010B502A0FFF7FCFC10BD000049
:100910004E4D495F48616E646C65720A00000000CC
:10092000704770477047704770477047704770470F
:100930007047000010B502A0FFF7E4FC10BD0000F6
:1009400050656E6453565F48616E646C65720A0050
:100950007047704710B502A0FFF7D4FC10BD00002F
:100960005356435F48616E646C65720A0000000074
:1009700010B502A0FFF7C6FC10BD000053797354F8
:1009800069636B5F48616E646C65720A0000000009
:100990000949096841F47001074A1160074909686B
:1009A000C843D106D1F88410084000F00F00034975
:1009B000091F08607047000088ED00E090000040CB
:1009C00070477047704770477047000010B5044685
:1009D000204600F00DF84FF440606060206D034940
:1009E00008402065C843E06410BD00000080FDFFA2
:1009F00070B504460D460C4908058C4206D1D0F866
:100A0000341241F04001C0F8341205E0D0F834123D
:100A100041F08001C0F834124020FFF7CFFDB0FB59
:100A2000F5F0A06170BD00000014004010B502A0F8
:100A3000FFF768FC10BD000055736167654661757E
:100A40006C745F48616E646C65720A00704700BF29
:100A5000FEE701464FF0FF307047000008B50A2856
:100A600014D10D22144B1A604FF0FF32009209E0AE
:100A7000114A4032126802F0040202B105E0009A05
:100A8000521E0092009A002AF2D100BFC2B20A4B55
:100A90001A604FF0FF32009209E0074A40321268B4
:100AA00002F0040202B105E0009A521E0092009A80
:100AB000002AF2D100BF08BD001400403048FFF703
:100AC000BDFDFFF73BFE2F48006840F2031188434D
:100AD00040F2012108438907C1F828032948001D75
:100AE000006840F20311884340F20121084389075E
:100AF000C1F82C034FF416412348FFF767FF224843
:100B0000001D006840F002001F49091D08600846EA
:100B1000006840F0010008601C49096808688047C7
:100B20001A480068816B164888471948FFF7EAFBA6
:100B3000FFF732FE0A20FFF71BFE1648FFF77EFD87
:100B4000FFF7FCFD4FF416410F48FFF73FFF0E483B
:100B5000001D006840F002000B49091D08600846AE
:100B6000006840F00100086008480068816B09488F
:100B700088470948FFF7C6FBFFF70EFE00BFFEE7F8
:100B800000E1F505280300400014004008C0FF1FE5
:100B9000A80B001080F0FA02F00B00104FF040702C
:100BA000E1EE100A70470000466C617368206973BB
:100BB00020776F726B696E67206174203130304D21
:100BC000487A2C20616E6420537461727420746FB3
:100BD00020646F20736F6D657468696E6720776934
:100BE000746820666C6173682E2E2E0A0000000067
:100BF000466C61736820697320776F726B696E67EA
:100C00002061742035304D487A2C20616E64205369
:100C10007461727420746F20646F20736F6D6574DB
:100C200068696E67207769746820666C6173682EE6
:100C30002E2E0A00540C001000C0FF1F3C000000C4
:100C400054010010900C00103CC0FF1F64180000FD
:100C50007001001000000000000000000010000003
:100C60000048E8010048E8010048E80100000000F1
:100C70000048E80100000000000000000000000043
:100C80000000000000000000000000000000000064
:0400000510000119CD
:00000001FF
