:020000041000EA
:1000000098C8FF1FB9010010C10700107D0700103C
:10001000A10700102D040010E908001000000000E6
:1000200000000000000000000000000011080010A7
:100030001D07001000000000F10700102D0800103F
:10004000090900109F0700107307001075070010C2
:100050007907001077070010830800100D080010C2
:10006000850800100F0800104F0400105104001004
:1000700053040010550400105704001059040010D8
:100080005B0400105D0400104D0400109D0700107B
:1000900005040010130400101504001017040010CC
:1000A000190400101B0400101D0400101F04001090
:1000B000210400102304001007040010090400109C
:1000C0000B0400100D0400100F04001011040010A8
:1000D000250400102704001029040010DD0700107B
:1000E000E1070010E5070010E9070010ED07001018
:1000F000DF070010E3070010E7070010EB07001010
:10010000710700101B0700107D0800107F08001009
:10011000810800101907001000F002F800F03CF808
:100120000AA090E8000C82448344AAF10107DA4552
:1001300001D100F031F8AFF2090EBAE80F0013F068
:10014000010F18BFFB1A43F001031847C008000055
:10015000E0080000103A24BF78C878C1FAD85207E6
:1001600024BF30C830C144BF04680C607047000031
:100170000023002400250026103A28BF78C1FBD8B0
:10018000520728BF30C148BF0B6070471FB500F051
:1001900037FC1FBD10B510BD00F0EEF81146FFF79B
:1001A000F5FF00F0E9FB00F020F903B4FFF7F2FFE0
:1001B00003BC00F0AAFB00000D480E490860DFF800
:1001C00038D00E488047DFF830D00D480047FEE7B2
:1001D000FEE7FEE7FEE7FEE7FEE7FEE7FEE7FEE7F7
:1001E000FEE7000007480849084A094B704700002D
:1001F0000000001008ED00E098C8FF1F4D08001037
:100200001901001098C0FF1F98C8FF1F98C4FF1F56
:1002100098C4FF1F53EA020C00F069802DE9F04BEF
:100220004FF00006002B1FBFB3FA83F503FA05F465
:1002300024FA05F65E4012BF1643B2FA82F502FABE
:1002400005F4C5F120051EBF22FA05FC44EA0C04A2
:10025000203556EA044C4FEA144418BF641C4FF092
:1002600000084FF00009904271EB030C39D30029CC
:1002700019BFB1FA81F701FA07F6B0FA80F700FA70
:1002800007F6C7F120071EBF20FA07FC46EA0C0656
:100290002037B6FBF4FCA7EB0507103F07F01F0B58
:1002A000CBF120060CFA0BFB2CFA06F644BFB34642
:1002B0000026202FA4BF5E464FF0000B5BEA060C21
:1002C00008BF4FF0010B19EB0B09ABFB027C48EBAD
:1002D0000608C01B06FB02CC0BFB03CC71EB0C0128
:1002E000C1E70B46024641464846BDE8F08B13B5D0
:1002F0004FF000004FF00001AFF30080BDE81C405C
:10030000704700000FB4044910B503AA029800F02A
:1003100009F810BC5DF814FB28C0FF1F7047704738
:1003200070470000074B70B50D467B4400F011F894
:100330000446284600F0EBFA10B14FF0FF3070BDD4
:10034000204670BDEB05000001694A1C0261087877
:10035000704700B58FB0CDE9013100210591054905
:100360007944CDE903101146684600F02AF80FB031
:1003700000BD0000E5FFFFFF754600F03FF8AE4608
:1003800005006946534620F00700854618B020B5A1
:10039000FFF728FFBDE820404FF000064FF00007B0
:1003A0004FF000084FF0000B21F00701AC46ACE81D
:1003B000C009ACE8C009ACE8C009ACE8C0098D468A
:1003C00070472DE9F04106460024D6E90170F56832
:1003D0008046304603E04146B847641C3046A84793
:1003E0000028F8D12046BDE8F08110B50446AFF3EF
:1003F00000802046BDE81040FFF7D7BE0048704798
:1004000034C0FF1F70477047704770477047704790
:100410007047704770477047704770477047704724
:1004200070477047704770477047000010B502A0D2
:10043000FFF768FF10BD00004275734661756C746C
:100440005F48616E646C65720A0000007047704717
:10045000704770477047704770477047704700009B
:100460002DE9F84F81460B461546002645484FF0CA
:100470008048854201D901267CE04348834201D867
:1004800001241EE04148834201D8022419E040487B
:10049000834201D8032414E03E48834201D8042457
:1004A0000FE03D48834201D805240AE03B488342DF
:1004B00001D8062405E03A48834201D8072400E029
:1004C0000126A6B93748854201D906270FE03648EC
:1004D000854201D908270AE03448854201D90C2712
:1004E00005E03348854201D3102700E00126EEBB2A
:1004F00005FB07F2210C4FF0000A20048446ACFBF8
:10050000020B01FB02B10CFB0A111A460023FFF794
:1005100081FE7F1EF90641EA04610143C8F810120A
:10052000D8F80C12C1F3412100EB40004001C1F1A9
:100530000B02B0FBF2F06422B0FBF2F0000C000101
:1005400040EA412040EAC900401CC8F80C021948A2
:100550000090D8F80002000705D40098401E0090D3
:1005600000980028F5D1D8F8000200E002E000076A
:1005700000D401263020C8F88C000F48C5603046F2
:10058000BDE8F88F00E1F50500127A000024F400C0
:1005900000366E010048E801005A6202006CDC027D
:1005A000007E5603C068780480F0FA0260343C0292
:1005B00040787D01A086010004C0FF1F70B54FF494
:1005C00080456E002A04B0F5005F06D0A84210D125
:1005D000D2F82C12C9B2491C16E0D2F82812CBB2BC
:1005E000D2F82812C1F302240121A1405B1C594317
:1005F0000AE0B04204D1D2F83012C9B2491C03E07B
:10060000D2F82412C9B2491CA84204D1D2F82C0253
:10061000C0F301600AE0B04204D1D2F83002C0F366
:10062000016003E0D2F82402C0F30160024A52F8EC
:100630002000B0FBF1F070BD04C0FF1F2DE9F843AE
:100640000646002430482F4901602F4A0321193AF9
:100650001170002707604FF08045D5F8040240F084
:100660000100C5F8040242F210700090D5F80002B3
:10067000C00705D10098401E009000980028F5D1D1
:10068000D5F80002DFF88480C00703D0D5F8000257
:10069000800701D4012407E041468E4204D032464F
:1006A0000020FFF7DDFE04464CBB464502D1C5F8ED
:1006B000247203E04FF04070C5F82402C5F82C7294
:1006C0004FF08070C5F830021148C0F80080C0F8C3
:1006D000048006610F480068816B304688473020EF
:1006E000C5F88C00D5F80002000602D50120BDE84F
:1006F000F883D5F80002400601D50120F7E720462F
:10070000F5E7000051E5CC1A601B00400048E80105
:1007100004C0FF1F00C0FF1F7047704710B502A044
:10072000FFF7F0FD10BD000044656275674D6F6E08
:100730005F48616E646C65720A0000000848094AEF
:1007400009490069904202D8042008607047074AAE
:10075000904202D805200860704706200860704764
:1007600004C0FF1F40787D0120C0FF1F0048E80142
:1007700070477047704770477047000010B502A07F
:10078000FFF7C0FD10BD0000486172644661756CE2
:10079000745F48616E646C65720A00007047704750
:1007A00010B502A0FFF7AEFD10BD00004D656D4D08
:1007B000616E6167655F48616E646C65720A000016
:1007C00010B502A0FFF79EFD10BD00004E4D495F21
:1007D00048616E646C65720A0000000070477047E3
:1007E0007047704770477047704770477047000008
:1007F00010B502A0FFF786FD10BD000050656E64C5
:1008000053565F48616E646C65720A0070477047AA
:1008100010B502A0FFF776FD10BD00005356435FF0
:1008200048616E646C65720A0000000010B502A099
:10083000FFF768FD10BD00005379735469636B5F67
:1008400048616E646C65720A00000000094909681D
:1008500041F47001074A116007490968C843D1068D
:10086000D1F88410084000F00F000349091F086008
:100870007047000088ED00E090000040704770472E
:10088000704770477047000010B50446204600F0DE
:100890000DF84FF440606060206D0349084020650A
:1008A000C843E06410BD00000080FDFF70B5044641
:1008B0000D460C4908058C4206D1D0F8341241F09F
:1008C0004001C0F8341205E0D0F8341241F0800144
:1008D000C0F834124020FFF771FEB0FBF5F0A061C4
:1008E00070BD00000014004010B502A0FFF70AFD23
:1008F00010BD000055736167654661756C745F4893
:10090000616E646C65720A00704700BFFEE70146C5
:100910004FF0FF307047000008B50A2814D10D22AF
:10092000144B1A604FF0FF32009209E0114A403236
:10093000126802F0040202B105E0009A521E009211
:10094000009A002AF2D100BFC2B20A4B1A604FF0DF
:10095000FF32009209E0074A4032126802F00402B6
:1009600002B105E0009A521E0092009A002AF2D1CC
:1009700000BF08BD001400401948FFF75FFEFFF7F5
:10098000DDFE1848006840F20311884340F201215F
:1009900008438907C1F828031248001D006840F287
:1009A0000311884340F2012108438907C1F82C0351
:1009B0004FF416410C48FFF767FF0B48001D006815
:1009C00040F002000849091D08600846006840F030
:1009D0000100086005A0FFF795FC00BFFEE70000DE
:1009E00000E1F50528030040001400404A757374C7
:1009F00020612053616D706C652E2E2E2E0A000032
:100A00004FF04070E1EE100A704700002C0A001011
:100A100000C0FF1F3400000054010010600A0010E5
:100A200034C0FF1F640800007001001000100000B7
:100A30000048E8010048E8010048E8010000000023
:100A40000048E80100000000000000000000000075
:100A50000000000000000000000000000000000096
:0400000510000119CD
:00000001FF
