:020000041000EA
:1000000060C9FF1FB90100105D0B0010190B001033
:100010003D0B001069040010810C0010000000006E
:10002000000000000000000000000000AD0B001008
:10003000B90A0010000000008D0B0010C90B001061
:10004000A10C0010390B00100F0B0010110B001049
:10005000150B0010130B0010E1010010A90B00108C
:100060001F0C0010AB0B00108B0400108D0400104F
:100070008F040010910400109304001095040010E8
:10008000970400109904001089040010E101001089
:10009000410400104F0400105104001053040010DC
:1000A0005504001057040010590400105B040010A0
:1000B0005D0400105F0400104304001045040010AC
:1000C00047040010490400104B0400104D040010B8
:1000D000610400106304001065040010790B001027
:1000E0007D0B0010810B0010850B0010890B001098
:1000F0007B0B00107F0B0010830B0010870B001090
:100100000D0B0010B50A0010190C00101B0C00108C
:100110001D0C0010E101001000F002F800F03CF8A6
:100120000AA090E8000C82448344AAF10107DA4552
:1001300001D100F031F8AFF2090EBAE80F0013F068
:10014000010F18BFFB1A43F001031847C80F000046
:10015000E80F0000103A24BF78C878C1FAD85207D7
:1001600024BF30C830C144BF04680C607047000031
:100170000023002400250026103A28BF78C1FBD8B0
:10018000520728BF30C148BF0B6070471FB500F051
:10019000BBFF1FBD10B510BD00F00CF91146FFF7F5
:1001A000F5FF00F0B5FD00F03EF903B4FFF7F2FFF4
:1001B00003BC00F076FD00000D480E490860DFF832
:1001C00038D00E488047DFF830D00D480047FEE7B2
:1001D000FEE7FEE7FEE7FEE7FEE7FEE7FEE7FEE7F7
:1001E000FEE7000007480849084A094B704700002D
:1001F0000000001008ED00E060C9FF1FE90B0010CF
:100200001901001060C1FF1F60C9FF1F60C5FF1FFB
:1002100060C5FF1F53EA020C00F069802DE9F04B26
:100220004FF00006002B1FBFB3FA83F503FA05F465
:1002300024FA05F65E4012BF1643B2FA82F502FABE
:1002400005F4C5F120051EBF22FA05FC44EA0C04A2
:10025000203556EA044C4FEA144418BF641C4FF092
:1002600000084FF00009904271EB030C39D30029CC
:1002700019BFB1FA81F701FA07F6B0FA80F700FA70
:1002800007F6C7F120071EBF20FA07FC46EA0C0656
:100290002037B6FBF4FCA7EB0507103F07F01F0B58
:1002A000CBF120060CFA0BFB2CFA06F644BFB34642
:1002B0000026202FA4BF5E464FF0000B5BEA060C21
:1002C00008BF4FF0010B19EB0B09ABFB027C48EBAD
:1002D0000608C01B06FB02CC0BFB03CC71EB0C0128
:1002E000C1E70B46024641464846BDE8F08B13B5D0
:1002F0004FF000004FF00001AFF30080BDE81C405C
:10030000704700000FB4044910B503AA029800F02A
:1003100027F810BC5DF814FBF4C0FF1F10B5431C98
:1003200002E010F8011B71B18107FAD14FF00132E0
:1003300002C88C1A8C4314EAC211F9D0C01A0A06FA
:1003400003D0C01E10BDC01A10BD0A0401D0801E0B
:1003500010BD0902FCD0401E10BD704770477047A9
:10036000074B70B50D467B4400F011F80446284653
:1003700000F099FC10B14FF0FF3070BD204670BD09
:100380004709000001694A1C02610878704700B5FE
:100390008FB0CDE901310021059105497944CDE9BE
:1003A00003101146684600F02AF80FB000BD0000A7
:1003B000E5FFFFFF754600F03FF8AE4605006946D1
:1003C000534620F00700854618B020B5FFF70AFF16
:1003D000BDE820404FF000064FF000074FF0000846
:1003E0004FF0000B21F00701AC46ACE8C009ACE8C7
:1003F000C009ACE8C009ACE8C0098D4670472DE9DA
:10040000F04106460024D6E90170F5688046304682
:1004100003E04146B847641C3046A8470028F8D19D
:100420002046BDE8F08110B50446AFF300802046B9
:10043000BDE81040FFF7B9BE0048704700C1FF1F7C
:1004400070477047704770477047704770477047F4
:1004500070477047704770477047704770477047E4
:10046000704770477047000010B502A0FFF74AFFC1
:1004700010BD00004275734661756C745F48616E13
:10048000646C65720A0000007047704770477047DF
:100490007047704770477047704700002DE9F84F6C
:1004A00081460B461546002645484FF08048854258
:1004B00001D901267CE04348834201D801241EE093
:1004C0004148834201D8022419E04048834201D8C0
:1004D000032414E03E48834201D804240FE03D4841
:1004E000834201D805240AE03B48834201D8062410
:1004F00005E03A48834201D8072400E00126A6B966
:100500003748854201D906270FE03648854201D990
:1005100008270AE03448854201D90C2705E0334812
:10052000854201D3102700E00126EEBB05FB07F250
:10053000210C4FF0000A20048446ACFB020B01FBA7
:1005400002B10CFB0A111A460023FFF763FE7F1E5F
:10055000F90641EA04610143C8F81012D8F80C12F8
:10056000C1F3412100EB40004001C1F10B02B0FB9F
:10057000F2F06422B0FBF2F0000C000140EA4120EE
:1005800040EAC900401CC8F80C0219480090D8F88D
:100590000002000705D40098401E00900098002833
:1005A000F5D1D8F8000200E002E0000700D40126EF
:1005B0003020C8F88C000F48C5603046BDE8F88F81
:1005C00000E1F50500127A000024F40000366E0107
:1005D0000048E801005A6202006CDC02007E56030B
:1005E000C068780480F0FA0260343C0240787D01F3
:1005F000A0860100D0C0FF1F70B54FF480456E008B
:100600002A04B0F5005F06D0A84210D1D2F82C120F
:10061000C9B2491C16E0D2F82812CBB2D2F828127F
:10062000C1F302240121A1405B1C59430AE0B042FE
:1006300004D1D2F83012C9B2491C03E0D2F8241216
:10064000C9B2491CA84204D1D2F82C02C0F30160FF
:100650000AE0B04204D1D2F83002C0F3016003E0F6
:10066000D2F82402C0F30160024A52F82000B0FB25
:10067000F1F070BDD0C0FF1F2DE9F84306460024FD
:1006800030482F4901602F4A0321193A1170002781
:1006900007604FF08045D5F8040240F00100C5F82E
:1006A000040242F210700090D5F80002C00705D194
:1006B0000098401E009000980028F5D1D5F800025F
:1006C000DFF88480C00703D0D5F80002800701D48A
:1006D000012407E041468E4204D032460020FFF755
:1006E000DDFE04464CBB464502D1C5F8247203E04A
:1006F0004FF04070C5F82402C5F82C724FF080709E
:10070000C5F830021148C0F80080C0F804800661C6
:100710000F480068816B304688473020C5F88C0050
:10072000D5F80002000602D50120BDE8F883D5F80F
:100730000002400601D50120F7E72046F5E700005A
:1007400051E5CC1A601B00400048E801D0C0FF1FF3
:10075000CCC0FF1FF8B50024661E0096056825F082
:1007600010050560056825F0010505601F0E032AC8
:100770007ED9046844F010040460046824F4007412
:10078000046001F00304012C12D0022C2ED0032CA3
:1007900044D0141D24F0030504F003046F1E4760C9
:1007A000076847F001070760C3602D1F0B464DE047
:1007B000541D24F0030504F00304A5F1010CC0F856
:1007C00004C0D0F800C04CF0010CC0F800C01B02FF
:1007D000C3600B7847EA03234F7843EA07438F78D7
:1007E00043EA0763C360083DCB1C2FE0941D24F04F
:1007F000030504F003046F1E4760076847F0010714
:1008000007601F04C7600F781B0C43EA07434F784B
:1008100043EA0763C360083D8B1C17E0D41D24F036
:10082000030504F003046F1E4760076847F00107E3
:1008300007601F06C7600F781B0A43EA0763C3609F
:10084000083D4B1C02E080CBC7602D1F002DFAD164
:100850007CB3036823F001030360036843F400736F
:100860000360631E4360036843F00103036004E018
:1008700006E0131BCB5CC360641E002CF9D118E0AA
:10088000D51C4560056845F400750560056845F0B0
:1008900001050560DDB2C560C3F30725C560C3F37C
:1008A0000743C360C76002E00B5DC360641C9442F1
:1008B000FAD300964169C90705D10099491E0091F4
:1008C00000990029F6D10721C1610069F8BDF8B58A
:1008D00000235E1E0096046824F01004046004687F
:1008E00024F001040460032A74D9036843F0100360
:1008F0000360036823F40073036001F00303012B1A
:100900000FD0022B24D0032B36D022F0030402F0A8
:100910000303651E4560056845F0010505600D4649
:100920003EE0531C23F0030403F00303651E4560FF
:10093000056845F0010505600D784F782D0245EA00
:1009400007458F7845EA0765C560241FCD1C27E061
:10095000931C23F0030403F00303651E4560056840
:1009600045F0010505600D784F782D0445EA0765CF
:10097000C560241F8D1C13E0D31C23F0030403F077
:100980000303651E4560056845F0010505600D78A7
:100990002D06C560241F4D1C02E080CDC760241FBA
:1009A000002CFAD133B3046824F001040460046815
:1009B00044F4007404605C1E4460046844F0010464
:1009C000046003E0D41A0C5DC4605B1E002BF9D1F7
:1009D00010E0FFE7541E4460046844F400740460AF
:1009E000046844F00104046002E0CC5CC4605B1C59
:1009F0009342FAD300964169C90705D10099491E6F
:100A0000009100990029F6D10721C1610069F8BD64
:100A100000220260026A22F007020262026822F0EB
:100A20000E0242EA41020260214A07291BD0052931
:100A300019D009B3042928D002292FD003292DD099
:100A4000116821F060011160116821F4807111605A
:100A5000016821F010010160016821F4007101605A
:100A60000721C1617047116821F0600111601168B0
:100A700041F480711160EBE7116841F06001116091
:100A8000116841F480711160E2E7116841F0600182
:100A90001160116821F480711160D9E7116821F0AB
:100AA00060011160116821F480711160D0E70000CD
:100AB000003600407047000010B502A0FFF722FC8E
:100AC00010BD000044656275674D6F6E5F48616ED2
:100AD000646C65720A0000000848094A0949006907
:100AE000904202D8042008607047074A904202D81A
:100AF000052008607047062008607047D0C0FF1FBF
:100B000040787D01ECC0FF1F0048E8017047704746
:100B1000704770477047000010B502A0FFF7F2FB66
:100B200010BD0000486172644661756C745F486175
:100B30006E646C65720A00007047000010B502A078
:100B4000FFF7E0FB10BD00004D656D4D616E616704
:100B5000655F48616E646C65720A000010B502A0A2
:100B6000FFF7D0FB10BD00004E4D495F48616E6439
:100B70006C65720A0000000070477047704770474C
:100B800070477047704770477047000010B502A06B
:100B9000FFF7B8FB10BD000050656E6453565F4808
:100BA000616E646C65720A007047704710B502A0F0
:100BB000FFF7A8FB10BD00005356435F48616E6409
:100BC0006C65720A0000000010B502A0FFF79AFBE6
:100BD00010BD00005379735469636B5F48616E64A4
:100BE0006C65720A000000000949096841F470014F
:100BF000074A116007490968C843D106D1F8841033
:100C0000084000F00F000349091F0860704700000A
:100C100088ED00E0900000407047704770477047D3
:100C200010B50446204600F00DF84FF440606060B7
:100C3000206D034908402065C843E06410BD0000F2
:100C40000080FDFF70B504460D460C4908058C4236
:100C500006D1D0F8341241F04001C0F8341205E05A
:100C6000D0F8341241F08001C0F834124020FFF770
:100C7000C3FCB0FBF5F0A06170BD000000140040A3
:100C800010B502A0FFF73EFB10BD00005573616771
:100C9000654661756C745F48616E646C65720A00CC
:100CA000704700BFFEE701464FF0FF30704700007D
:100CB00008B50A2814D10D22144B1A604FF0FF32E8
:100CC000009209E0114A4032126802F0040202B1B7
:100CD00005E0009A521E0092009A002AF2D100BF4D
:100CE000C2B20A4B1A604FF0FF32009209E0074A85
:100CF0004032126802F0040202B105E0009A521E6E
:100D00000092009A002AF2D100BF08BD00140040F2
:100D100070B5E848FFF7B0FCFFF7DEFEE648006874
:100D200040F20311884340F2012108438907C1F8CA
:100D30002803E148001D006840F20311884340F297
:100D4000012108438907C1F82C034FF41641DB4801
:100D5000FFF766FFD948001D006840F00200D74940
:100D6000091D08600846006840F00100086007217E
:100D7000D348FFF74DFED34B0722D349D048FFF7A6
:100D8000E9FC0446D148844201D0002070BDCD4B1F
:100D90000622CD49491CCA48FFF7DCFC0446CC4872
:100DA000844201D00020F1E7C64B0522C649891CC8
:100DB000C348FFF7CFFC0446C648844201D0002058
:100DC000E4E7C04B0522C049491EBD48FFF7C2FCFD
:100DD0000446C148844201D00020D7E7B94B08221D
:100DE000B949B748FFF7B6FC0446BC48844201D075
:100DF0000020CBE7B34B0722B349491CB048FFF7AB
:100E0000A9FC0446B648844201D00020BEE7AD4BA1
:100E10000622AD49891CAA48FFF79CFC0446B1484C
:100E2000844201D00020B1E7A64B0322A649491E07
:100E3000A348FFF78FFC0446AB48844201D0002052
:100E4000A4E7A04B0422A0499D48FFF783FC044679
:100E5000A648844201D0002098E79A4B04229A4980
:100E6000491C9748FFF776FC0446A148844201D00C
:100E700000208BE7934B04229349891C9048FFF78D
:100E800069FC04469B48844201D000207EE7022191
:100E90008B48FFF7BDFD04228B49491E8848FFF7A8
:100EA00016FD04464FF6E840844201D000206DE76D
:100EB000072285498248FFF70AFD04464CF6F610E2
:100EC000844201D0002061E706227F49491C7C480A
:100ED000FFF7FDFC04464BF2BD30844201D00020F8
:100EE00054E705227849891C7548FFF7F0FC044651
:100EF00043F62930844201D0002047E70522724999
:100F0000491E6F48FFF7E3FC044648F6940084420C
:100F100001D000203AE708226B496948FFF7D7FC67
:100F200004464BF63230844201D000202EE70722DF
:100F30006549491C6248FFF7CAFC044644F29F70A9
:100F4000844201D0002021E706225F49891C5C48C9
:100F5000FFF7BDFC044649F2BA50844201D000209C
:100F600014E703225849491E5548FFF7B0FC0446D0
:100F700043F6E870844201D0002007E7042252497A
:100F80004F48FFF7A4FC044646F25020844201D0AB
:100F90000020FBE604224C49491C4948FFF797FC16
:100FA000044644F2C010844201D00020EEE6042240
:100FB0004549891C4248FFF78AFC04464FF63D200C
:100FC000844201D00020E1E600213D48FFF720FDEA
:100FD0004948FFF7A3F905464FF0FA432A46464928
:100FE0003748FFF7B7FB0446C92C01D00020CDE6F7
:100FF00004213348FFF70CFD3F48FFF78FF9054602
:101000002A463D492E48FFF762FC044646F6A910E1
:10101000844201D00020B9E605212948FFF7F8FCF9
:101020003548FFF77BF905462A4633492448FFF740
:101030004EFC044648F21110844201D00020A5E67F
:1010400003211F48FFF7E4FC2B48FFF767F905462B
:101050002A4629491A48FFF73AFC044647F2F83075
:10106000844201D0002091E61548006820F00E006F
:10107000801D134908600846006840F06000086061
:101080000846006840F4807008601B48FFF746F986
:1010900005462A4618490A48FFF719FC044647F650
:1010A0003D20844201D0002070E614A0FFF72AF909
:1010B00000BFFEE700E1F5052803004000140040F2
:1010C0000036004062F5269265C0FF1FFA6EB6B288
:1010D000FDC8C47FA62EF05C3E17BFCD3B69D55737
:1010E0003E8E7CC9A432E6351ECBFDA9A9A0FE5ACE
:1010F00021C3CF713AD22E4C00C0FF1F54657374C8
:1011000020506173730A00004FF04070E1EE100A46
:10111000704700003411001000C0FF1F00010000E4
:10112000540100103412001000C1FF1F60080000BD
:10113000700100104352432063616C63756C6174ED
:10114000652061636365737320646F6E65210000C1
:10115000000000000000000000000000000000008F
:10116000000000000000000000000000000000007F
:10117000000000000000000000000000000000006F
:10118000000000000000000000000000000000005F
:101190000000000000000000A0A1A2A3A4A5A6A733
:1011A000A8A9AAABACADAE00000000000000000092
:1011B000000000000000000000000000000000002F
:1011C000000000000000000000000000000000001F
:1011D000000000000000000000000000000000000F
:1011E00000000000000000000000000000000000FF
:1011F00000000000000000000000000000000000EF
:10120000001000000048E8010048E8010048E8013B
:10121000000000000048E80100000000000000009D
:1012200000000000000000000000000000000000BE
:0412300000000000BA
:0400000510000119CD
:00000001FF
